:1000000033C0000039C0000037C0000036C0000017
:1000100033C0000031C000002FC000002DC0000020
:100020002BC0000029C0000027C0000025C0000030
:1000300023C0000021C000001FC000001DC0000040
:100040001BC0000019C0000017C0000015C0000050
:1000500013C0000011C000000FC000000DC0000060
:100060000BC0000009C0000011241FBECFEFD8E074
:10007000DEBFCDBF5AD4C4C4C3CF1F920F920FB6F8
:100080000F9211248F931F990AC085B115B885B1BD
:1000900015B885B115B885B115B885B115B88F916A
:1000A0000F900FBE0F901F9018959093C5008093EE
:1000B000C40088E08093C10086E08093C200089568
:1000C000843281F0E0ECF0E0908195FFFDCF8093E9
:1000D000C6002FEF81EE94E0215080409040E1F780
:1000E00000C0000008958EEF88B98FE39CE9019766
:1000F000F1F700C0000086B18E7FC9F04A9917C0A1
:10010000289A9FEF23ED80E3915020408040E1F753
:1001100000C0000085B115B89FEF23EC89E0915035
:1001200020408040E1F700C0000081E3089586B1DF
:100130008E7FC9F04B9917C0299A9FEF23ED80E37A
:10014000915020408040E1F700C0000085B115B813
:100150009FEF23EC89E0915020408040E1F700C000
:10016000000082E3089586B18E7FE1F04C991AC0B9
:10017000289A299A9FEF23ED80E3915020408040F8
:10018000E1F700C0000085B115B885B115B89FEF43
:1001900023EC89E0915020408040E1F700C000004E
:1001A00083E3089586B18E7FE1F04D991AC02B9AB2
:1001B000299A9FEF23ED80E3915020408040E1F7A2
:1001C00000C0000085B115B885B115B89FEF23ECCC
:1001D00089E0915020408040E1F700C0000081E4B8
:1001E00008958DEF88B98FE39CE90197F1F700C07E
:1001F000000089B18D7FC9F04A9917C02A9A9FEFF4
:1002000023ED80E3915020408040E1F700C00000E2
:1002100085B115B89FEF23EC89E0915020408040D4
:10022000E1F700C0000084E3089586B18D7FE1F01E
:100230004B991AC02A9A289A9FEF23ED80E3915098
:1002400020408040E1F700C0000085B115B885B1BD
:1002500015B89FEF23EC89E0915020408040E1F7F2
:1002600000C0000085E3089586B18D7FE1F04C99D0
:100270001AC02A9A299A9FEF23ED80E391502040DB
:100280008040E1F700C0000085B115B885B115B810
:100290009FEF23EC89E0915020408040E1F700C0BF
:1002A000000086E3089586B18D7FF9F04D991DC059
:1002B0002B9A299A289A9FEF23ED80E391502040B2
:1002C0008040E1F700C0000085B115B885B115B8D0
:1002D00085B115B89FEF23EC89E091502040804014
:1002E000E1F700C0000082E408958BEF88B98FE346
:1002F0009CE90197F1F700C0000086B18B7FF9F00F
:100300004A991DC02A9A299A289A9FEF23ED80E3E3
:10031000915020408040E1F700C0000085B115B841
:1003200085B115B885B115B89FEF23EC89E09150E0
:1003300020408040E1F700C0000087E3089586B1C7
:100340008B7FC9F04B9917C02B9A9FEF23ED80E369
:10035000915020408040E1F700C0000085B115B801
:100360009FEF23EC89E0915020408040E1F700C0EE
:10037000000088E3089586B18B7FE1F04C991AC0A4
:100380002B9A289A9FEF23ED80E3915020408040E4
:10039000E1F700C0000085B115B885B115B89FEF31
:1003A00023EC89E0915020408040E1F700C000003C
:1003B00089E3089586B18B7FE1F04D991AC02B9A9D
:1003C0002A9A9FEF23ED80E3915020408040E1F78F
:1003D00000C0000085B115B885B115B89FEF23ECBA
:1003E00089E0915020408040E1F700C0000083E4A4
:1003F000089587EF88B98FE39CE90197F1F700C072
:10040000000086B1877FF9F04A991DC02B9A2A9A7D
:10041000299A9FEF23ED80E3915020408040E1F73F
:1004200000C0000085B115B885B115B885B115B803
:100430009FEF23EC89E0915020408040E1F700C01D
:10044000000085E4089586B1877F11F04B9B47C07B
:1004500086B1877F11F14C9920C02B9A2A9A299A4C
:10046000289A9FEF23ED80E3915020408040E1F7F0
:1004700000C0000085B115B885B115B885B115B8B3
:1004800085B115B89FEF23EC89E091502040804062
:10049000E1F700C0000086E4089586B1877F09F186
:1004A0004D9921C02B9A2A9A289A9FEF23ED80E339
:1004B000915020408040E1F700C0000085B115B8A0
:1004C00085B115B885B115B89FEF23EC89E091503F
:1004D00020408040E1F700C0000084E4089580E3FC
:1004E000089584E2089584E20895813669F4289A93
:1004F0002AEA36EE86E991E0215030408040904073
:10050000D9F7000081E30895823669F4299A2AEA2E
:1005100036EE86E991E02150304080409040D9F796
:10052000000082E30895833671F4289A299A2AEA12
:1005300036EE86E991E02150304080409040D9F776
:10054000000083E308958A3671F42B9A299A2AEAE7
:1005500036EE86E991E02150304080409040D9F756
:10056000000081E40895843669F42A9A2AEA36EE76
:1005700086E991E02150304080409040D9F700005A
:1005800084E30895853671F42A9A289A2AEA36EE89
:1005900086E991E02150304080409040D9F700003A
:1005A00085E30895863671F42A9A299A2AEA36EE66
:1005B00086E991E02150304080409040D9F700001A
:1005C00086E308958B3679F42B9A299A289A2AEA99
:1005D00036EE86E991E02150304080409040D9F7D6
:1005E000000082E40895873679F42A9A299A289A95
:1005F0002AEA36EE86E991E0215030408040904072
:10060000D9F7000087E30895883669F42B9A2AEA1F
:1006100036EE86E991E02150304080409040D9F795
:10062000000088E30895893671F42B9A289A2AEA03
:1006300036EE86E991E02150304080409040D9F775
:10064000000089E308958C3611F0833771F42B9AFA
:100650002A9A2AEA36EE86E991E02150304080401D
:100660009040D9F7000083E408958036B1F485B155
:1006700015B885B115B885B115B885B115B885B16E
:1006800015B82AEA36EE86E991E0215030408040E4
:100690009040D9F7000080E308958D3611F084373B
:1006A00079F42B9A2A9A289A2AEA36EE86E991E07A
:1006B0002150304080409040D9F7000084E40895F4
:1006C0008E3611F0853779F42B9A2A9A299A2AEADC
:1006D00036EE86E991E02150304080409040D9F7D5
:1006E000000085E408958F3611F0863781F42B9A47
:1006F0002A9A299A289A2AEA36EE86E991E0215028
:10070000304080409040D9F7000086E4089580375B
:1007100011F0873769F42C9A2AEA36EE86E991E0DF
:100720002150304080409040D9F7000087E4089580
:10073000813711F0883771F42C9A289A2AEA36EE1C
:1007400086E991E02150304080409040D9F7000088
:1007500088E40895823711F0893771F42C9A299A28
:100760002AEA36EE86E991E0215030408040904000
:10077000D9F7000089E408958A3779F42C9A299AE8
:10078000289A2AEA36EE86E991E0215030408040EE
:100790009040D9F700008AE40895823811F08B3731
:1007A00071F42C9A2A9A2AEA36EE86E991E02150D1
:1007B000304080409040D9F700008BE408958338A2
:1007C00011F08C3779F42C9A2A9A289A2AEA36EE74
:1007D00086E991E02150304080409040D9F70000F8
:1007E0008CE40895843811F08D3779F42C9A2A9A84
:1007F000299A2AEA36EE86E991E02150304080407D
:100800009040D9F700008DE40895853811F08E37B7
:1008100081F42C9A2A9A299A289A2AEA36EE86E9AD
:1008200091E02150304080409040D9F700008EE4A4
:100830000895863811F08F3771F42C9A2B9A2AEA92
:1008400036EE86E991E02150304080409040D9F763
:1008500000008FE40895873879F42C9A2B9A289A0F
:100860002AEA36EE86E991E02150304080409040FF
:10087000D9F7000080E50895883879F42C9A2B9AEE
:10088000299A2AEA36EE86E991E0215030408040EC
:100890009040D9F7000081E50895893881F42C9AB9
:1008A0002B9A299A289A2AEA36EE86E991E0215075
:1008B000304080409040D9F7000082E508958A38A2
:1008C00079F42C9A2B9A2A9A2AEA36EE86E991E054
:1008D0002150304080409040D9F7000083E50895D2
:1008E0008B3881F42C9A2B9A2A9A289A2AEA36EE87
:1008F00086E991E02150304080409040D9F70000D7
:1009000084E508958C3881F42C9A2B9A2A9A299A96
:100910002AEA36EE86E991E021503040804090404E
:10092000D9F7000085E5089508958FEF87B91AB8C3
:100930008BB18C638BB92798EBE6F0E080818068FF
:100940008083E8E6F0E0808181608083209A219AAC
:10095000229A239A249A87E690E0A7DB7894C3DB57
:10096000D82FAEDBD432D9F3BEDBC82F182FA8DBCB
:10097000C432D1F38C2F8D0F9FE8980F923090F5F1
:1009800090ED9D0F923020F020ED2C0F223050F58D
:10099000813791F4D03311F0103329F52B9A299A2D
:1009A0002AEA36EE86E991E02150304080409040BE
:1009B000D9F7000081E417C08237A9F4923018F00B
:1009C000C053C23080F42B9A299A289A2AEA36EE2C
:1009D00086E991E02150304080409040D9F70000F6
:1009E00082E401C082DD6CDB80E26ADB2FEF31EE56
:1009F00084E0215030408040E1F700C00000AFCFDC
:040A0000F894FFCF98
:00000001FF
